:020000040000FA
:020000000528D1
:0800080009008316F0308500A9
:10001000031788010313831200000E2814201520F3
:100020000030A100A10B12280800142008000C28A1
:100030000F3085044620A001003020020319322829
:1000400001302002031937280230200203193C280E
:10005000033020020319412804302002031D1C280C
:1000600085010800013085004820A00A1C280230C4
:1000700085004820A00A1C28043085004820A00ADA
:100080001C28083085004820A00A1C280000080011
:040090000000080064
:02400E00F42F8D
:02401000FF3F70
:00000001FF
