:020000040000FA
:020000000528D1
:0800080009008316F0308500A9
:100010000616861603178801890103138312E0016F
:100020001F201028861E16282214172822100000D0
:1000300019286C206D200030A100A10B1D28403034
:100040008400E301302000086402031D28282928C9
:100050000134840AE30A63086002031D2228003485
:100060000608E4000F30E40500306402031D39285F
:100070003A2808003028083EA3000330A3050030CA
:100080002302031D4428013401302302031D4928A3
:10009000023402302302031D4E2804340834831333
:1000A000403084006008840761088000E00A08008E
:1000B000610885005D20850108000800403084004B
:1000C0008313E2010008E1005820840AE20A600874
:1000D0006202031D6228080008006C200800102836
:1000E0000F3085049E20A0010030200203198A28C9
:1000F0000130200203198F280230200203199428AE
:10010000033020020319992804302002031D7428AB
:100110008501080001308500A020A00A7428023063
:100120008500A020A00A742804308500A020A00A21
:10013000742808308500A020A00A74280000080058
:0401400000000800B3
:02400E00F42F8D
:02401000FF3F70
:00000001FF
