:020000040000FA
:020000000528D1
:0800080009008316F0308500A9
:100010000616861603178801890103138312E0016F
:100020002220E100362045201028861E192822149F
:100030001A28221000001C28532054200030A10050
:10004000A10B2028083EA3000330A30500302302A3
:10005000031D2B28013401302302031D30280234F4
:1000600002302302031D3528043408348313403042
:1000700084006008840761088000E00A08006108C5
:100080008500442085010800080040308400831367
:10009000E2010008E1003F20840AE20A60086202EF
:1000A000031D4928080008005320080010280F30BD
:1000B00085048520A0010030200203197128013039
:1000C0002002031976280230200203197B2803300E
:1000D00020020319802804302002031D5B288501BB
:1000E0000800013085008720A00A5B2802308500C7
:1000F0008720A00A5B28043085008720A00A5B289F
:10010000083085008720A00A5B2800000800000056
:020110000800E5
:02400E00F42F8D
:02401000FF3F70
:00000001FF
